:100000000C9407010C942F010C942F010C942F01D8
:100010000C942F010C942F010C942F010C942F01A0
:100020000C942F010C942F010C942F010C942F0190
:100030000C942F010C942F010C942F010C942F0180
:100040000C94740B0C942F010C942F010C942F0121
:100050000C942F010C942F010C942F010C942F0160
:100060000C9451060C942F0100407A10F35A00A012
:10007000724E18090010A5D4E80000E87648170071
:1000800000E40B54020000CA9A3B000000E1F505B1
:10009000000080969800000040420F000000A086FB
:1000A00001000000102700000000E803000000002D
:1000B0006400000000000A000000000001000000D1
:1000C00000002C76D888DC674F0823DFC1DFAE59EB
:1000D000E1B1B796E5E3E453C63AE651997696E87E
:1000E000E6C28426EB898C9B62ED407C6FFCEFBC02
:1000F0009C9F40F2BAA56FA5F490055A2AF75C932D
:100100006B6CF9676DC11BFCE0E40D47FEF520E662
:10011000B500D0ED902E0300943577050080841E45
:10012000080000204E0A000000C80C333333330FA0
:10013000986E12831141EF8D2114893BE65516CF3D
:10014000FEE6DB18D1844B381BF77C1D901DA4BB49
:10015000E424203284725E228100C9F124ECA1E5FE
:100160003D2720003E0020D090D0BCD0BFD0BBD0D7
:10017000B8D182D183D0B4D0B03A20002046D0BDCF
:10018000D0B8D0B6D0BD203D200020D0A0D0B5D072
:10019000B6D0B8D0BC3A20002046D0BED181D0BD68
:1001A000203D20002046D0B2D0B5D180D185203D61
:1001B00020000000000023002600290000000008A5
:1001C000000201000003040700000000000000001E
:1001D00000000000250028002B0000000000240083
:1001E00027002A0004040404040404040202020296
:1001F00002020303030303030102040810204080EA
:10020000010204081020010204081020C00C11246F
:100210001FBECFEFD8E0DEBFCDBF24E0A4E0B2E048
:1002200001C01D92AF32B207E1F712E0A0E0B1E0E9
:10023000E8EDF7E202C005900D92A430B107D9F7BE
:1002400011E0C7E0D1E004C02197FE010E94D8115F
:10025000C630D107C9F70E94210D0C94EA130C9403
:10026000000021E001C0220F6A95EAF7DC011C962C
:100270002C931C971A965C934E931997ED91FC91D1
:100280000484F585E02D60E00994DC01ED91FC919A
:100290000684F785E02D41E0099581E090E008951E
:1002A0000895089585ED8093BC008091BC0084FD85
:1002B000FCCF10928302089540912702262F30E050
:1002C000240F311D21323105DCF4209183022430CA
:1002D000C9F4FC0180E090E0861758F430912702C1
:1002E0002191DC01AB5FBD4FA30FB11D2C93019693
:1002F000F3CF80912702680F6093270280E0089572
:1003000081E0089582E00895089581E090E03091C1
:100310004D0220914C02321710F480E090E091954C
:1003200081959109089580914D0290914C02891711
:1003300030F48F5F80934D0280E090E008958FEF5E
:100340009FEF089580914C0290E020914D02821B16
:1003500091090895CF92DF92EF92FF920F931F932E
:10036000CF93DF937C01262F972F8A0180918402FF
:10037000882391F0C62FD72F6E01C40ED51ECC1541
:10038000DD0571F06991D701ED91FC910190F0814B
:10039000E02DC7010995F3CF642F822F0E945C01E5
:1003A000C801DF91CF911F910F91FF90EF90DF90E7
:1003B000CF900895CF93DF931F92CDB7DEB76983B7
:1003C000209184022223D1F02091A702203240F014
:1003D00021E030E0FC013383228380E090E015C00F
:1003E00080918502E82FF0E0EA57FD4F99819083D4
:1003F0008F5F809385028093A70205C061E0CE01E4
:1004000001960E945C0181E090E00F90DF91CF9116
:100410000895089580E090E00895FC01238122234F
:10042000B9F09181909569236083828191E09093E6
:1004300084028093A602109285021092A70288EA95
:1004400092E00E94DA010E94A508282F30E002C045
:1004500020E030E081E090E0232B11F080E090E09C
:100460000895EF92FF920F931F93CF938C01FC019D
:10047000759684E0C0E060FF02C09081C92B66954C
:10048000815031968111F7CF413011F4F801448940
:10049000F8018585C82BC42B7801FEE0EF0EF11C16
:1004A000F80162896C2BC7010E940D02F801628974
:1004B00060956C23C701CF911F910F91FF90EF9032
:1004C0000C940D020F931F93CF93DF93062F0F70A1
:1004D000423019F440E0602F10C0142F262FEC0199
:1004E00030E0B90184E0759567958A95E1F7CE0112
:1004F0000E943102412F602FCE01DF91CF911F91D9
:100500000F910C943102FC0184858823A9F0218588
:1005100032852115310519F4611106C007C021305B
:10052000310521F4611102C0858701C015866585FA
:10053000CF010E960C940D020895CF92DF92EF92A8
:10054000FF920F931F93CF93DF93CDB7DEB76297E0
:100550000FB6F894DEBF0FBECDBF8C016A017B01E0
:1005600062EC71E00E946D0A80E1C81687E2D8064D
:10057000E104F10474F463EB71E0CE010D960E9486
:100580006D0AC701B6010E947F10AB01BC0120E0DB
:1005900039C06091590270915A0280915B0290912A
:1005A0005C020E947F1020E034E244E759E40E949C
:1005B000781087FF14C06BEA71E0CE010D960E949F
:1005C0006D0AC701B6010E947F1020E030E04AE7C3
:1005D00054E40E946611AB01BC0122E013C062EB3F
:1005E00071E0CE010D960E946D0AC701B6010E940E
:1005F0007F1020E034E244E759E40E946611AB0129
:10060000BC0124E0CE0101960E94EE09BE016F5F9D
:100610007F4FCE0107960E94640ABE01635F7F4F41
:10062000CE0107960E946309BC01C8010E94D2094D
:10063000CE0107960E94E909CE0101960E94E909C0
:10064000CE010D960E94E909C80162960FB6F89492
:10065000DEBF0FBECDBFDF91CF911F910F91FF90F5
:10066000EF90DF90CF900895CF92DF92EF92FF92BC
:100670001F93CF93DF93CDB7DEB769970FB6F8948A
:10068000DEBF0FBECDBF81E0898F80E00E942309CD
:1006900080915002833019F464EA71E002C068E985
:1006A00071E0CE0101960E942C0AAE014F5F5F4FB0
:1006B000BE01675E7F4FCE0107960E94BE0BCE0142
:1006C00007960E945A09CE0107960E94E909CE01B9
:1006D00001960E94E9094091590250915A02609195
:1006E0005B0270915C02CE0101960E949D02AE01F8
:1006F0004F5F5F4FBE01675E7F4FCE0107960E943E
:10070000BE0BCE0107960E945A09CE0107960E94A1
:10071000E909CE0101960E94E90981E00E942309BE
:100720006AE871E0CE0101960E942C0AAE014F5F8B
:100730005F4FBE01675E7F4FCE0107960E94BE0BE2
:10074000CE0107960E945A09CE0107960E94E90938
:10075000CE0101960E94E9091091500262EC71E00D
:10076000CE0107960E946D0A113041F038F0123028
:1007700041F0133049F46AED71E008C068EB71E0B4
:1007800005C063EC71E002C061EE71E0CE0101963C
:100790000E946D0ABE016F5F7F4FCE0107960E94D7
:1007A0009509CE0101960E94E909AE01495F5F4FAC
:1007B000BE01675E7F4FCE0101960E94BE0BCE0147
:1007C00001960E945A09CE0101960E94E909CE01C4
:1007D00007960E94E90980915002833009F041C0D8
:1007E00082E00E9423096CE771E0CE0101960E942D
:1007F0002C0AAE014F5F5F4FBE01675E7F4FCE0197
:1008000007960E94BE0BCE0107960E945A09CE01A0
:1008100007960E94E909CE0101960E94E9094091DC
:100820005502509156026091570270915802CE01C4
:1008300001960E949D02AE014F5F5F4FBE01675E51
:100840007F4FCE0107960E94BE0BCE0107960E94F5
:100850005A09CE0107960E94E909CE0101960E942D
:10086000E90983E00E94230966E671E0CE01019662
:100870000E942C0AAE014F5F5F4FBE01675E7F4F43
:10088000CE0107960E94BE0BCE0107960E945A0920
:10089000CE0107960E94E909CE0101960E94E9095E
:1008A000C0905102D0905202E0905302F090540256
:1008B00062EC71E0CE0143960E946D0A88EEC81684
:1008C00083E0D806E104F10474F468EF71E0CE012E
:1008D00001960E946D0AC701B6010E947F10AB010C
:1008E000BC0120E031C0C701B6010E947F106B013E
:1008F0007C0120E034E244E759E40E94781087FF4D
:1009000012C06FEF71E0CE0101960E946D0A20E0E7
:1009100030E04AE754E4C701B6010E946611AB011A
:10092000BC0122E011C06CEF71E0CE0101960E9483
:100930006D0A20E034E244E759E4C701B6010E94A1
:100940006611AB01BC0124E0CE010D960E94EE09B8
:10095000BE01635F7F4FCE0107960E94640ABE010D
:100960006F5F7F4FCE0107960E946309BC01CE01E5
:1009700043960E94D209CE0107960E94E909CE0152
:100980000D960E94E909CE0101960E94E909AE0187
:100990004D5E5F4FBE01675E7F4FCE0101960E94A4
:1009A000BE0BCE0101960E945A09CE0101960E940B
:1009B000E909CE0143960E94E90980914F020E9405
:1009C000230980910402882319F084E691E002C093
:1009D00082E691E00E9402099091040281E0892759
:1009E0008093040269960FB6F894DEBF0FBECDBFA8
:1009F000DF91CF911F91FF90EF90DF90CF900895FE
:100A000084E00E94820A892B11F483E006C082E010
:100A10000E94820A892B21F481E080934E0209C052
:100A200083E00E94820A892B11F482E0F6CF1092B3
:100A30004E0280914E02833061F480914F028330E8
:100A400030F480914F028F5F80934F02089510928F
:100A50004F020895DC01ED91FC910684F785E02DAD
:100A600040E009948F929F92AF92BF92CF92DF9213
:100A7000EF92FF920F931F93CF93DF93EC014230DD
:100A800018F08C8188608C834F836887222329F03B
:100A9000413019F48C8184608C830E944F0B4B0190
:100AA0005C0184E6C82ED12CE12CF12C0E944F0B66
:100AB000DC01CB0188199909AA09BB09883E93403A
:100AC000A105B10558F021E0C21AD108E108F108EA
:100AD00088EE880E83E0981EA11CB11CC114D104BD
:100AE000E104F10419F76C8164FD31C0E881F981FA
:100AF0000684F785E02D42E063E0CE0109958BE4A2
:100B000096E40197F1F7E881F9810684F785E02DF5
:100B100042E063E0CE01099503E512E0C8010197C8
:100B2000F1F7E881F9810684F785E02D42E063E082
:100B3000CE010995C8010197F1F7E881F981068492
:100B4000F785E02D42E062E0CE01099517C06062B2
:100B5000CE010E942A058BE496E40197F1F76C819F
:100B60006062CE010E942A0503E512E0C8010197E8
:100B7000F1F76C816062CE010E942A05C8010197DD
:100B8000F1F76C816062CE010E942A058BEE90E045
:100B90000197F1F784E08D836CE0CE010E942A0575
:100BA00061E0CE010E942A058BE39FE10197F1F7F6
:100BB00082E08E8366E0CE010E942A05E881F981F9
:100BC0000484F585E02D6FEFCE01DF91CF911F9169
:100BD0000F91FF90EF90DF90CF90BF90AF909F90DC
:100BE0008F900994EF92FF920F931F93CF93DF930F
:100BF000EC01062FF42EE22E8B85888B10924D028D
:100C000010924C02109285021092A7021092830259
:100C100011E01093820210925D0261E082E10E9475
:100C2000AB0A61E083E10E94AB0A8091B9008E7F3C
:100C30008093B9008091B9008D7F8093B90088E4DA
:100C40008093B80085E48093BC0088891093840267
:100C50008093A602109285021092A7020E94A50816
:100C600091E0811190E0998B992329F088EA92E034
:100C70000E9493018E878989882339F01F861C8200
:100C800060E0CE010E960E940D022E2D4F2D602F9A
:100C9000CE01DF91CF911F910F91FF90EF900C94B7
:100CA00032051F920F920FB60F9211242F933F938C
:100CB0004F935F936F937F938F939F93AF93BF9364
:100CC000EF93FF938091B900887F803609F49CC030
:100CD00068F5883209F45BC090F4803109F454C09F
:100CE00038F4882309F4F6C0883009F44DC0F6C002
:100CF000883109F44CC0803209F45DC0EFC0803403
:100D000009F468C048F4803309F455C0883309F009
:100D1000E5C080938102D8C0803509F44FC0883582
:100D200009F45DC0883409F0D9C0D6C0883909F407
:100D3000C7C0A8F4883709F467C038F4883609F4C6
:100D400063C0803709F460C0C9C0883809F4B8C0EE
:100D5000803909F45FC0803809F0C0C05BC0803BB7
:100D600009F486C038F4803A09F466C0883A09F478
:100D70007FC0B4C0803C09F4A7C0883C09F4A4C07B
:100D8000883B09F48AC0AAC080915E0210C090918D
:100D9000800280917F02981770F5E091800281E0D7
:100DA0008E0F80938002F0E0E15AFD4F80818093A6
:100DB000BB0085EC86C0809381028EC0E0918002EA
:100DC00081E08E0F809380028091BB00F0E0E15AB9
:100DD000FD4F80839091800280917F026EC0E091F0
:100DE000800281E08E0F809380028091BB00F0E052
:100DF000E15AFD4F80838091820281116DC081E0B4
:100E000080935D0284EA61C083E080938302109244
:100E10004B02CFCF80914B02803208F051C0E0915D
:100E20004B0281E08E0F80934B028091BB00F0E07B
:100E3000E55DFD4F8083BDCF85EC8093BC001092B3
:100E4000830280914B02803230F4E0914B02F0E05B
:100E5000E55DFD4F108260914B0270E0E091290248
:100E6000F0912A028BE292E0099510924B0236C073
:100E700084E0809383021092280210922702E0916E
:100E80002502F0912602099580912702811105C063
:100E900081E08093270210920502E091280281E010
:100EA0008E0F80932802F0E0EB5FFD4F80818093EE
:100EB000BB009091280280912702981708F479CFFF
:100EC00085E88093BC000AC085EC8093BC0010923A
:100ED000830204C0109281020E945201FF91EF919F
:100EE000BF91AF919F918F917F916F915F914F9142
:100EF0003F912F910F900FBE0F901F901895CF9399
:100F0000DF9390E0FC01E850FE4F2491FC01EC518E
:100F1000FE4F84918823C1F090E0880F991FFC0157
:100F2000E652FE4FC591D491FC01E053FE4FA591CE
:100F3000B4919FB7F8943881822F8095832388835A
:100F4000EC91E22BEC939FBFDF91CF910895FC01D0
:100F5000248135816217730720F480819181009785
:100F600029F41092D60286ED92E00895860F971F1D
:100F700008950895CF92DF92EF92FF920F931F93FF
:100F8000CF93DF936C017A018B01C0E0D0E0CE15E6
:100F9000DF0589F0D8016D918D01D601ED91FC91AD
:100FA0000190F081E02DC6010995892B11F47E0195
:100FB00002C02196ECCFC701DF91CF911F910F9115
:100FC000FF90EF90DF90CF900895833081F028F468
:100FD000813099F08230A1F008958730A9F08830EF
:100FE000B9F08430D1F4809180008F7D03C080916E
:100FF00080008F7780938000089584B58F7702C03A
:1010000084B58F7D84BD08958091B0008F7703C033
:101010008091B0008F7D8093B0000895EF92FF9291
:10102000DC01E12CF12CEC91E11127C0A1E1AE9D96
:10103000F001AF9DF00D1124E80FF91F81E08083CE
:1010400041835283638374838FEF9FEF96838583FD
:10105000328721872FB7F8948091CE029091CF02EA
:10106000A091D002B091D1022FBF83879487A5872A
:10107000B687108A17868E2D09C0EFEFEE1AFE0A8A
:101080005196EAE0EE16F10471F68FEFFF90EF90C3
:1010900008950E94D513CF93DF93EC018881998145
:1010A000009711F00E947312198218821D821C820F
:1010B0001B821A82DF91CF9108950F931F93CF93D4
:1010C000DF93EC0188819981009729F02A813B8187
:1010D0002617370788F48B016F5F7F4F0E940B1331
:1010E000009761F0998388831B830A832C813D815B
:1010F000232B11F4FC01108281E001C080E0DF911C
:10110000CF911F910F910895EF92FF920F931F932C
:10111000CF93DF93EC017B018A01BA010E945D0845
:10112000811104C0CE010E944B0807C01D830C83AF
:10113000B701888199810E94E313CE01DF91CF919D
:101140001F910F91FF90EF9008952091A702909129
:10115000A602213208F04AC0809183028111FCCF9F
:1011600032E03093830231E0309382023FEF3093DC
:1011700081021092800220937F02A6E8B2E04FE540
:1011800052E0FA013E2F341B321718F43D9131938F
:10119000F9CF10925E0220915E02990F922B9093EC
:1011A0005E0290915D02913061F410925D02909127
:1011B0005E029093BB009091BC0093FDF8CF95EC3C
:1011C00001C095EE9093BC00909183029230E1F3C0
:1011D000909181029F3F79F080918102803241F0AD
:1011E00080918102803331F084E005C081E003C04A
:1011F00082E001C083E0109285021092A702109253
:10120000840208950F931F93CF93DF938C01C0E066
:10121000D0E0F801EC0FFD1F6491662371F0E091BE
:10122000B402F091B5020190F081E02D84EB92E0E0
:101230000995892B11F02196ECCFCE01DF91CF914A
:101240001F910F910895CF93DF93CDB7DEB7289705
:101250000FB6F894DEBF0FBECDBF1D8290E49E8313
:1012600024E12F8324E5288719829A8390E19B83C8
:1012700090E59C832091BB02821710F08FEF820FC4
:101280003091BC0290E0FE01E80FF91F303121F4EB
:10129000243011F4618101C06581606884EB92E0C3
:1012A00028960FB6F894DEBF0FBECDBFDF91CF9169
:1012B0000C942A05FC01448155816081718184EB85
:1012C00092E00C94BA07EF92FF920F931F93CF9383
:1012D000DF93EC01FB0184819581E080F1800C813A
:1012E0001D81E114F104B1F00097B9F0080F191F46
:1012F000B801CE010E945D08882361F02881398100
:101300008C819D81B701820F931F0E94E3131D837F
:101310000C8303C0CE010E944B08CE01DF91CF9118
:101320001F910F91FF90EF9008950F931F93CF930C
:10133000DF938C01EB018617970771F1FC01808127
:1013400091810097B1F0688179816115710579F01B
:10135000428153812C813D814217530740F00E9406
:10136000E3138C819D81F8019583848313C00E94CF
:10137000731288819981F801918380838A819B818E
:10138000938382838C819D819583848319821882C3
:101390001B821A821D821C82C801DF91CF911F918E
:1013A0000F910895CF93DF93EC01FB018617970708
:1013B00061F0608171816115710529F04481558169
:1013C0000E94840802C00E944B08CE01DF91CF9199
:1013D0000895FC01808191810C947312EF92FF9229
:1013E0000F931F93CF93DF93CDB7DEB7A1970FB6BF
:1013F000F894DEBF0FBECDBF7C01CB01BA01F7016F
:1014000011821082138212821582148242E0420FEE
:101410008E010F5F1F4F0E94E20D009769F0FC01E3
:1014200001900020E9F73197AF01481B590BBC012F
:10143000C7010E94840803C0C7010E944B08A196FF
:101440000FB6F894DEBF0FBECDBFDF91CF911F91D5
:101450000F91FF90EF900895EF92FF920F931F93DB
:10146000CF93DF93EC01198218821B821A821D82AE
:101470001C826115710509F18B01CB010E94090ED7
:101480007C01BC01CE010E945D08811109C0CE0122
:10149000DF91CF911F910F91FF90EF900C944B082B
:1014A000FD82EC82B80188819981DF91CF911F91F3
:1014B0000F91FF90EF900C94020EDF91CF911F914E
:1014C0000F91FF90EF900895FC011182108213821A
:1014D0001282158214820C94D209FC0111821082AE
:1014E00013821282158214826115710551F0FB017D
:1014F00001900020E9F73197AF01461B570B0C9480
:1015000084080895CF93DF93282F30E0F901E45445
:10151000FE4F8491F901E850FE4FD491F901EC514E
:10152000FE4FC491CC2391F081110E94E507EC2F6E
:10153000F0E0EE0FFF1FEE54FE4FA591B491EC9139
:10154000ED2381E090E021F480E002C080E090E0B3
:10155000DF91CF9108951F93CF93DF93282F30E031
:10156000F901E454FE4F8491F901E850FE4FD49103
:10157000F901EC51FE4FC491CC23C9F0162F811113
:101580000E94E507EC2FF0E0EE0FFF1FE053FE4F47
:10159000A591B4918FB7F894111105C09C91ED2FCE
:1015A000E095E92302C0EC91ED2BEC938FBFDF9126
:1015B000CF911F9108954F925F926F927F928F9279
:1015C0009F92AF92BF92EF92FF920F931F93CF9390
:1015D000DF932FB7F8948090CE029090CF02A09026
:1015E000D002B090D1022FBFEC018C01085F1F4FD9
:1015F0007C018AEAE80EF11C88818823D1F14B85B1
:101600005C856D857E8524013501441A550A660A7C
:10161000770A49815A816B817C814416550666069A
:101620007706E8F0813019F0823029F00FC0E985A3
:10163000FA8509950BC061E0F8018081811160E0B5
:10164000F8016083319780810E94AB0A8B869C866B
:10165000AD86BE868F8598890196988B8F878D8100
:101660009E8197FD06C02F853889281739070CF011
:10167000188261960F5E1F4FCE15DF0509F0BCCFB3
:10168000DF91CF911F910F91FF90EF90BF90AF909E
:101690009F908F907F906F905F904F9008953FB78D
:1016A000F8948091D2029091D302A091D402B0918B
:1016B000D50226B5A89B05C02F3F19F00196A11DA4
:1016C000B11D3FBFBA2FA92F982F8827820F911DD8
:1016D000A11DB11DBC01CD0142E0660F771F881F1F
:1016E000991F4A95D1F708951F920F920FB60F9246
:1016F00011242F933F938F939F93AF93BF93809128
:10170000CE029091CF02A091D002B091D10230913F
:10171000CD0223E0230F2D3720F40196A11DB11D2A
:1017200005C026E8230F0296A11DB11D2093CD020E
:101730008093CE029093CF02A093D002B093D102B7
:101740008091D2029091D302A091D402B091D5029F
:101750000196A11DB11D8093D2029093D302A09354
:10176000D402B093D502BF91AF919F918F913F91D9
:101770002F910F900FBE0F901F9018958F929F92F0
:10178000AF92BF92CF92DF92EF92FF920F931F938F
:10179000CF93DF93CDB7DEB76A970FB6F894DEBF6D
:1017A0000FBECDBF7C018A01DB018C91813009F035
:1017B00084C0BA01CE010D960E94640A62EC71E009
:1017C000CE0143960E946D0A80E3898F1A8E898824
:1017D0009A88C12CD12CC814D9040CF060C0B60171
:1017E000CE010D960E94A707FC0190815601FFEFE4
:1017F000AF1ABF0A903C70F1903D19F0913DA1F0F5
:1018000029C0B501CE010D960E94A707DC019C916D
:101810005601B2E0AB0EB11C9138C9F080E7890FD8
:101820008033C0F4905D16C0B501CE010D960E94C4
:10183000A707FC0190815601F2E0AF0EB11C91396F
:1018400041F080E8890F803128F4905903C098EA6C
:1018500001C098EB998FBE01675E7F4FCE01019664
:101860000E946D0ABE016D5E7F4FCE0107960E94F9
:10187000640ABE016F5F7F4FCE0107960E94630925
:10188000BC01CE0143960E94D209CE0107960E9468
:10189000E909CE0101960E94E90965019CCFBE01CC
:1018A0006D5E7F4FC8010E949509CE0143960E944C
:1018B000E909CE010D960E94E909A12CB12CD801AD
:1018C00014968D919C911597A816B90610F5B5013F
:1018D000C8010E94A707DC018C9187FF16C0B501E3
:1018E000C8010E94A7076C01B501C8010E94A707A3
:1018F000DC01EC91E058EF3728F4F0E0EA5FFE4FAE
:10190000808101C080E0F6018083FFEFAF1ABF0A3B
:10191000D6CFF701118210821382128215821482AF
:101920008D919C9111979183808312968D919C91BA
:1019300013979383828314968D919C911597958329
:10194000848311961C921E9213961C921E921297DB
:1019500015961C921E921497C7016A960FB6F894BA
:10196000DEBF0FBECDBFDF91CF911F910F91FF90D2
:10197000EF90DF90CF90BF90AF909F908F900895A1
:101980001092AB021092AA0288EE93E0A0E0B0E0C1
:101990008093AC029093AD02A093AE02B093AF02DD
:1019A00089E891E09093A9028093A8021092B7026F
:1019B0001092B6028BE991E09093B5028093B40245
:1019C0001092C4028FEF8093C3021092C202109251
:1019D000C50287E28093BF021092C0021092C1023A
:1019E0001092BE021092BD0284E08093C60282E093
:1019F0008093C70281E08093C80280E18093C9028E
:101A000080E28093CA0280E48093CB0280E88093D6
:101A1000CC0240E050E063E084EB92E00E943101B0
:101A2000E1E8F3E01082719684E0EB32F807D1F739
:101A3000E7EDF2E01082719683E0E138F807D1F724
:101A40000895789484B5826084BD84B5816084BD36
:101A500085B5826085BD85B5816085BD80916E004C
:101A6000816080936E00109281008091810082607D
:101A700080938100809181008160809381008091BA
:101A800080008160809380008091B10084608093A9
:101A9000B1008091B00081608093B00080917A00A5
:101AA000846080937A0080917A00826080937A00CB
:101AB00080917A00816080937A0080917A008068BA
:101AC00080937A001092C10088E093E3A7E9B0E028
:101AD0008093590290935A02A0935B02B0935C02E8
:101AE00088EA9AE1A4E7B0E0809355029093560209
:101AF000A0935702B09358028AE29DEBA3E0B0E0B6
:101B00008093510290935202A0935302B0935402D7
:101B100083E08093500210924F0220E044E064E1A1
:101B200084EB92E00E94F2056091B9026E7F6093AF
:101B3000B902686084EB92E00E942A05E091B40249
:101B4000F091B5020484F585E02D6FEF84EB92E00F
:101B5000099561E084EB92E00E942A058BE39FE106
:101B60000197F1F710924F0224E333E044EF51E084
:101B700060E070E081E893E00E940E0882E00E943D
:101B80007F0783E00E947F0784E00E947F07109216
:101B90004E0220E035E04CE251E060E070E087ED7D
:101BA00092E00E940E08C0E0D0E081E893E00E943D
:101BB000DB0A87ED92E00E94DB0A2097B1F30E94D6
:101BC0000000F3CFEF920F931F93CF93DF93E801C1
:101BD00047FD02C034E001C034E1E42F440FFF0BA5
:101BE000F7FF03C0F195E195F109E32E022F2E2FA7
:101BF000AE010E94120ECE01DF91CF911F910F9185
:101C0000EF900895FB01DC0105900D920020E1F7B3
:101C10000895FC0105900020E9F7809590958E0FBE
:101C20009F1F08954F925F926F927F929F92AF9203
:101C3000BF92CF92DF92EF92FF920F931F93CF93B9
:101C4000DF93CDB7DEB729970FB6F894DEBF0FBE8E
:101C5000CDBF6A01122FB02E2BE3201720F0FF24F6
:101C6000F394F00E02C0BCE3FB2E0F2D27E0AE0173
:101C70004F5F5F4F0E94A00FAC018981982F997030
:101C8000913031F0E1FC06C0E0FE06C090E205C0F4
:101C90009DE203C09BE201C090E0EE2DE07183FF66
:101CA0003CC0911102C083E001C084E0811718F4A8
:101CB000212F281B01C020E0E1110BC0F601822F6B
:101CC00030E2882319F031938150FBCFC20ED11C32
:101CD00020E0992329F0D6019C93F60131966F01FB
:101CE000C6010396E2FE0AC03EE4D6013C9341E4FD
:101CF00011964C93119712963C9306C03EE6F6015E
:101D0000308341E641833283FC01322F40E23323AA
:101D100009F442C041933150FACF82FF44C091117F
:101D200002C083E001C084E0811718F4212F281B32
:101D300001C020E0E1110BC0F601822F30E28823C0
:101D400019F031938150FBCFC20ED11C20E09923B2
:101D500029F0D6019C93F60131966F01C6010396D6
:101D6000E2FE0BC039E4D6013C933EE411963C936D
:101D7000119736E412963C9307C039E6F60130839A
:101D80003EE6318336E63283FC01322F40E23323D4
:101D900019F041933150FBCFFC01E20FF11D10828D
:101DA0008EEF9FEFB7C0F1E0911101C0F0E06F2F0F
:101DB00070E01416150624F49A012F5F3F4F02C0FD
:101DC00021E030E0260F371FBB2029F06B2D70E09B
:101DD0006F5F7F4F02C060E070E0260F371F612FFA
:101DE00070E0261737071CF4121B212F01C020E0DA
:101DF0003E2D387159F4D601322F60E2332319F0A9
:101E00006D933150FBCFC20ED11C20E0FF2331F087
:101E1000D6019C93B6016F5F7F4F6B01E1110BC040
:101E2000F601922F30E3992319F031939150FBCFB3
:101E3000C20ED11C20E09F2D940F3A81782F707133
:101E4000A72E84FF03C0313309F49150191624F4EE
:101E5000993018F098E001C091E0E42F852F57FFEA
:101E600002C0E0E080E06E2F782FE0E0F0E0AEE22C
:101E70009A2E3A01691A71082A01461A570A0B2D3F
:101E800010E01195019511096F3F8FEF780729F444
:101E9000D6019C92C60101966C014617570784F043
:101EA000661677066CF47F01E40CF51CA1E0B0E047
:101EB000AC0FBD1FEA0EFB1ED7011196BC9002C0ED
:101EC00090E3B92E615071093196C60101967C01EB
:101ED0006017710724F0D601BC926C01D5CF64174E
:101EE000750741F4363320F4353321F4A11002C0D4
:101EF00081E3B82EF601B082F701822F90E28823A9
:101F000019F091938150FBCFF701E20FF11D108280
:101F100080E090E029960FB6F894DEBF0FBECDBFEB
:101F2000DF91CF911F910F91FF90EF90DF90CF90B5
:101F3000BF90AF909F907F906F905F904F9008956B
:101F4000283008F027E03327DA01990F311D87FD8B
:101F5000916000966105710539F432602E5F3D9302
:101F600030E32A95E1F708959F3F30F080387105FE
:101F7000610509F03C5F3C5F3D93913008F080685B
:101F8000911DDF93CF931F930F93FF92EF92192F21
:101F9000987F9695E92F96959695E90FFF27EE5332
:101FA000FF4F99273327EE24FF24A701E70105906F
:101FB0000894079428F4360FE71EF81E491F511D98
:101FC000660F771F881F991F0694A1F70590079445
:101FD00028F4E70EF81E491F561FC11D770F881FF2
:101FE000991F661F0694A1F70590079428F4F80E30
:101FF000491F561FC71FD11D880F991F661F771FC6
:102000000694A1F70590079420F4490F561FC71FA7
:10201000D81F990F661F771F881F0694A9F7849110
:102020001095177041F0D695C79557954795F79439
:10203000E7941A95C1F7E8E6F0E0689415901591D9
:1020400035916591959105907FE27395E118F10ABC
:10205000430B560BC90BD009C0F7E10CF11E431F0F
:10206000561FC91FD01D7EF4703311F48A95E6CF38
:10207000E894015030F0080F0AF40027021708F422
:10208000202F2395022F7A3328F079E37D932A9528
:10209000E9F710C07D932A9589F606949795679580
:1020A000379517951794E118F10A430B560BC90B96
:1020B000D00998F023957E9173957A3308F070E3F8
:1020C0007C932013B8F77E9170617D9330F08395F7
:1020D00071E37D9370E32A95E1F71124EF90FF906F
:1020E0000F911F91CF91DF91992787FD90950895CA
:1020F0000E94BA1008F481E00895E89409C097FBA3
:102100003EF490958095709561957F4F8F4F9F4FCE
:102110009923A9F0F92F96E9BB279395F695879512
:1021200077956795B795F111F8CFFAF4BB0F11F4D5
:1021300060FF1BC06F5F7F4F8F4F9F4F16C088237C
:1021400011F096E911C0772321F09EE8872F762FB2
:1021500005C0662371F096E8862F70E060E02AF0F3
:102160009A95660F771F881FDAF7880F96958795DF
:1021700097F90895990F0008550FAA0BE0E8FEEFB4
:1021800016161706E807F907C0F012161306E4073B
:10219000F50798F0621B730B840B950B39F40A2634
:1021A00061F0232B242B252B21F408950A2609F412
:1021B000A140A6958FEF811D811D089597F99F6716
:1021C00080E870E060E008959FEF80EC08950024BF
:1021D0000A941616170618060906089500240A948C
:1021E00012161306140605060895092E0394000C12
:1021F00011F4882352F0BB0F40F4BF2B11F460FFA1
:1022000004C06F5F7F4F8F4F9F4F089557FD9058C9
:10221000440F551F59F05F3F71F04795880F97FBAA
:10222000991F61F09F3F79F0879508951216130664
:102230001406551FF2CF4695F1DF08C01616170693
:102240001806991FF1CF86957105610508940895C8
:10225000E894BB2766277727CB0197F908952F923B
:102260003F924F925F926F927F928F929F92AF9226
:10227000BF92CF92DF92EF92FF920F931F93CF9373
:10228000DF93CDB7DEB7CA1BDB0B0FB6F894DEBF0A
:102290000FBECDBF09942A88398848885F846E8430
:1022A0007D848C849B84AA84B984C884DF80EE807A
:1022B000FD800C811B81AA81B981CE0FD11D0FB683
:1022C000F894DEBF0FBECDBFED0108950E947A11D4
:1022D0000C94F5100E94EE1058F00E94E71040F0A8
:1022E00029F45F3F29F00C94DE1051110C94291150
:1022F0000C94E4100E94061168F39923B1F355235E
:1023000091F3951B550BBB27AA2762177307840708
:1023100038F09F5F5F4F220F331F441FAA1FA9F39E
:1023200035D00E2E3AF0E0E832D091505040E6958C
:10233000001CCAF72BD0FE2F29D0660F771F881FED
:10234000BB1F261737074807AB07B0E809F0BB0BE0
:10235000802DBF01FF2793585F4F3AF09E3F5105F4
:1023600078F00C94DE100C9429115F3FE4F3983E52
:10237000D4F3869577956795B795F7959F5FC9F7DD
:10238000880F911D9695879597F90895E1E0660F5E
:10239000771F881FBB1F621773078407BA0720F0D7
:1023A000621B730B840BBA0BEE1F88F7E095089540
:1023B000EE0FFF1F0590F491E02D0994CF93DF936A
:1023C0008230910510F482E090E0E0912D04F091CC
:1023D0002E0420E030E0C0E0D0E0309711F14081E1
:1023E000518148175907C0F04817590761F4828195
:1023F0009381209719F09B838A832BC090932E049E
:1024000080932D0426C02115310519F0421753077A
:1024100018F49A01BE01DF01EF010280F381E02D83
:10242000DCCF2115310509F1281B390B243031058A
:1024300090F412968D919C9113976115710521F07E
:10244000FB019383828304C090932E0480932D0418
:10245000FD01329644C0FD01E20FF31F8193919379
:10246000225031092D933C933AC020912B04309196
:102470002C04232B41F4209102013091030130936D
:102480002C0420932B04209100013091010121158F
:10249000310541F42DB73EB740910401509105013B
:1024A000241B350BE0912B04F0912C04E217F30769
:1024B000A0F42E1B3F0B2817390778F0AC014E5FB4
:1024C0005F4F2417350748F04E0F5F1F50932C04C1
:1024D00040932B048193919302C0E0E0F0E0CF01A0
:1024E000DF91CF9108950F931F93CF93DF930097C0
:1024F00009F48CC0FC0132971382128200912D04E2
:1025000010912E040115110581F420813181820F73
:10251000931F20912B0430912C042817390779F54B
:10252000F0932C04E0932B0471C0D80140E050E0FC
:10253000AE17BF0750F412962D913C911397AD0141
:102540002115310509F1D901F3CF9D01DA0133835A
:10255000228360817181860F971F8217930769F428
:10256000EC0128813981260F371F2E5F3F4F3183C1
:1025700020838A819B8193838283452B29F4F09366
:102580002E04E0932D0442C01396FC93EE93129711
:10259000ED01499159919E01240F351FE217F30770
:1025A00071F480819181840F951F029611969C93FE
:1025B0008E938281938113969C938E931297E0E081
:1025C000F0E0D80112968D919C911397009719F025
:1025D000F8018C01F6CF8D919C9198012E5F3F4FB1
:1025E000820F931F20912B0430912C042817390758
:1025F00069F4309729F410922E0410922D0402C031
:102600001382128210932C0400932B04DF91CF913C
:102610001F910F910895A0E0B0E0E1E1F3E10C9487
:102620003311EC01009721F4CB010E94DE11B8C0F8
:10263000FC01E60FF71F9C0122503109E217F30756
:1026400008F4ACC0D9010D911C911197061717071A
:10265000B0F00530110508F49FC0C8010497861733
:10266000970708F499C002501109061B170B019334
:1026700011936D937C93CF010E9473128DC05B0107
:10268000A01AB10A4C01800E911EA0912D04B091A8
:102690002E0440E050E0E12CF12C109709F44AC0E0
:1026A000A815B905D1F56D907C901197630182E072
:1026B000C80ED11CCA14DB0480F1A3014A195B09BE
:1026C0006A0182E0C80ED11C1296BC901297139634
:1026D000AC91B5E0CB16D10440F0B282A383518314
:1026E0004083D9016D937C930AC00E5F1F4FC301D5
:1026F000800F911FF90191838083EB2DFA2FE11454
:10270000F10431F0D7011396FC93EE93129744C075
:10271000F0932E04E0932D043FC08D919C9111976E
:102720004817590708F4AC017D0112960D90BC9131
:10273000A02DB3CF80912B0490912C04881599057E
:10274000E1F446175707C8F4809100019091010108
:10275000009741F48DB79EB7409104015091050157
:10276000841B950BE817F907C8F4F0932C04E09349
:102770002B04F901718360830FC0CB010E94DE112D
:102780007C01009759F0A801BE010E94DA13CE0126
:102790000E947312C70104C0CE0102C080E090E025
:1027A000CDB7DEB7EEE00C944F1181E090E0F894E5
:1027B0000C94EA13FB01DC0102C001900D92415020
:1027C0005040D8F70895FB01DC0101900D920020E4
:0827D000E1F70895F894FFCF32
:1027D80000002F048000848594FF8687DBCFD0D14A
:1027E800D2D3D4D5D6D7D8D9DADBDCDDDEDFE7E83B
:1027F800E9EAEBECEDEEEFF0F1F2F3F4F5F6A2F71F
:10280800F8F9FAFBFCFDFEFFE7E8E9EAEBECB5EEC8
:10281800EFF0F1F2FDFF41A042A1E045A3A4A5A677
:102828004BA74D484FA8504354A9AA58E1ABACE276
:10283800ADAE62AFB0B161B2B3B4E365B6B7B8B923
:10284800BABBBCBD6FBE7063BF79E478E5C0C1E6B2
:10285800C2C3C4C5C600000000DA01AA010A028486
:1028680001A20193018501000000004501BA070A91
:10287800020902F205310183026202D0BAD093D173
:1028880086004DD093D18600D181D0B8D0BDD183F8
:10289800D18100D182D180D0B5D183D0B3D0BED080
:1028A800BBD18CD0BDD0B8D0BA00D093D09AD0A725
:1028B80000D0BDD0B5D0BED0BFD180D0B5D0B4D0B7
:1028C800B5D0BBD0B5D0BD00D0BCD0BAD09200D066
:0428D800BCD09200DE
:107E0000112484B714BE81FFF0D085E080938100F7
:107E100082E08093C00088E18093C10086E0809377
:107E2000C20080E18093C4008EE0C9D0259A86E02C
:107E300020E33CEF91E0309385002093840096BBD3
:107E4000B09BFECF1D9AA8958150A9F7CC24DD24C4
:107E500088248394B5E0AB2EA1E19A2EF3E0BF2EE7
:107E6000A2D0813461F49FD0082FAFD0023811F036
:107E7000013811F484E001C083E08DD089C08234E0
:107E800011F484E103C0853419F485E0A6D080C0E4
:107E9000853579F488D0E82EFF2485D0082F10E0AE
:107EA000102F00270E291F29000F111F8ED06801E7
:107EB0006FC0863521F484E090D080E0DECF843638
:107EC00009F040C070D06FD0082F6DD080E0C81688
:107ED00080E7D80618F4F601B7BEE895C0E0D1E017
:107EE00062D089930C17E1F7F0E0CF16F0E7DF06D8
:107EF00018F0F601B7BEE89568D007B600FCFDCFD4
:107F0000A601A0E0B1E02C9130E011968C91119780
:107F100090E0982F8827822B932B1296FA010C0160
:107F200087BEE89511244E5F5F4FF1E0A038BF0790
:107F300051F7F601A7BEE89507B600FCFDCF97BE46
:107F4000E89526C08437B1F42ED02DD0F82E2BD052
:107F50003CD0F601EF2C8F010F5F1F4F84911BD097
:107F6000EA94F801C1F70894C11CD11CFA94CF0C13
:107F7000D11C0EC0853739F428D08EE10CD085E9AC
:107F80000AD08FE07ACF813511F488E018D01DD067
:107F900080E101D065CF982F8091C00085FFFCCF94
:107FA0009093C60008958091C00087FFFCCF809118
:107FB000C00084FD01C0A8958091C6000895E0E648
:107FC000F0E098E1908380830895EDDF803219F02E
:107FD00088E0F5DFFFCF84E1DECF1F93182FE3DFCA
:107FE0001150E9F7F2DF1F91089580E0E8DFEE27F6
:047FF000FF270994CA
:027FFE00040479
:0400000300007E007B
:00000001FF
